{
  "_format": "hh-sol-artifact-1",
  "contractName": "LingobabeTokenV2",
  "sourceName": "contracts/LingobabeTokenV2.sol",
  "abi": [
    {
      "inputs": [],
      "stateMutability": "nonpayable",
      "type": "constructor"
    },
    {
      "inputs": [
        {
          "internalType": "address",
          "name": "spender",
          "type": "address"
        },
        {
          "internalType": "uint256",
          "name": "allowance",
          "type": "uint256"
        },
        {
          "internalType": "uint256",
          "name": "needed",
          "type": "uint256"
        }
      ],
      "name": "ERC20InsufficientAllowance",
      "type": "error"
    },
    {
      "inputs": [
        {
          "internalType": "address",
          "name": "sender",
          "type": "address"
        },
        {
          "internalType": "uint256",
          "name": "balance",
          "type": "uint256"
        },
        {
          "internalType": "uint256",
          "name": "needed",
          "type": "uint256"
        }
      ],
      "name": "ERC20InsufficientBalance",
      "type": "error"
    },
    {
      "inputs": [
        {
          "internalType": "address",
          "name": "approver",
          "type": "address"
        }
      ],
      "name": "ERC20InvalidApprover",
      "type": "error"
    },
    {
      "inputs": [
        {
          "internalType": "address",
          "name": "receiver",
          "type": "address"
        }
      ],
      "name": "ERC20InvalidReceiver",
      "type": "error"
    },
    {
      "inputs": [
        {
          "internalType": "address",
          "name": "sender",
          "type": "address"
        }
      ],
      "name": "ERC20InvalidSender",
      "type": "error"
    },
    {
      "inputs": [
        {
          "internalType": "address",
          "name": "spender",
          "type": "address"
        }
      ],
      "name": "ERC20InvalidSpender",
      "type": "error"
    },
    {
      "inputs": [
        {
          "internalType": "address",
          "name": "owner",
          "type": "address"
        }
      ],
      "name": "OwnableInvalidOwner",
      "type": "error"
    },
    {
      "inputs": [
        {
          "internalType": "address",
          "name": "account",
          "type": "address"
        }
      ],
      "name": "OwnableUnauthorizedAccount",
      "type": "error"
    },
    {
      "anonymous": false,
      "inputs": [
        {
          "indexed": true,
          "internalType": "address",
          "name": "user",
          "type": "address"
        },
        {
          "indexed": false,
          "internalType": "string",
          "name": "characterId",
          "type": "string"
        }
      ],
      "name": "AccessPurchased",
      "type": "event"
    },
    {
      "anonymous": false,
      "inputs": [
        {
          "indexed": true,
          "internalType": "address",
          "name": "user",
          "type": "address"
        },
        {
          "indexed": false,
          "internalType": "string",
          "name": "characterId",
          "type": "string"
        }
      ],
      "name": "AccessRevoked",
      "type": "event"
    },
    {
      "anonymous": false,
      "inputs": [
        {
          "indexed": true,
          "internalType": "address",
          "name": "owner",
          "type": "address"
        },
        {
          "indexed": true,
          "internalType": "address",
          "name": "spender",
          "type": "address"
        },
        {
          "indexed": false,
          "internalType": "uint256",
          "name": "value",
          "type": "uint256"
        }
      ],
      "name": "Approval",
      "type": "event"
    },
    {
      "anonymous": false,
      "inputs": [
        {
          "indexed": true,
          "internalType": "address",
          "name": "previousOwner",
          "type": "address"
        },
        {
          "indexed": true,
          "internalType": "address",
          "name": "newOwner",
          "type": "address"
        }
      ],
      "name": "OwnershipTransferred",
      "type": "event"
    },
    {
      "anonymous": false,
      "inputs": [
        {
          "indexed": true,
          "internalType": "address",
          "name": "from",
          "type": "address"
        },
        {
          "indexed": true,
          "internalType": "address",
          "name": "to",
          "type": "address"
        },
        {
          "indexed": false,
          "internalType": "uint256",
          "name": "value",
          "type": "uint256"
        }
      ],
      "name": "Transfer",
      "type": "event"
    },
    {
      "inputs": [],
      "name": "ACCESS_COST",
      "outputs": [
        {
          "internalType": "uint256",
          "name": "",
          "type": "uint256"
        }
      ],
      "stateMutability": "view",
      "type": "function"
    },
    {
      "inputs": [],
      "name": "FAUCET_AMOUNT",
      "outputs": [
        {
          "internalType": "uint256",
          "name": "",
          "type": "uint256"
        }
      ],
      "stateMutability": "view",
      "type": "function"
    },
    {
      "inputs": [],
      "name": "MESSAGES_PER_PACKAGE",
      "outputs": [
        {
          "internalType": "uint256",
          "name": "",
          "type": "uint256"
        }
      ],
      "stateMutability": "view",
      "type": "function"
    },
    {
      "inputs": [],
      "name": "TOKENS_PER_MESSAGE",
      "outputs": [
        {
          "internalType": "uint256",
          "name": "",
          "type": "uint256"
        }
      ],
      "stateMutability": "view",
      "type": "function"
    },
    {
      "inputs": [
        {
          "internalType": "address",
          "name": "owner",
          "type": "address"
        },
        {
          "internalType": "address",
          "name": "spender",
          "type": "address"
        }
      ],
      "name": "allowance",
      "outputs": [
        {
          "internalType": "uint256",
          "name": "",
          "type": "uint256"
        }
      ],
      "stateMutability": "view",
      "type": "function"
    },
    {
      "inputs": [
        {
          "internalType": "address",
          "name": "spender",
          "type": "address"
        },
        {
          "internalType": "uint256",
          "name": "value",
          "type": "uint256"
        }
      ],
      "name": "approve",
      "outputs": [
        {
          "internalType": "bool",
          "name": "",
          "type": "bool"
        }
      ],
      "stateMutability": "nonpayable",
      "type": "function"
    },
    {
      "inputs": [
        {
          "internalType": "address",
          "name": "account",
          "type": "address"
        }
      ],
      "name": "balanceOf",
      "outputs": [
        {
          "internalType": "uint256",
          "name": "",
          "type": "uint256"
        }
      ],
      "stateMutability": "view",
      "type": "function"
    },
    {
      "inputs": [
        {
          "internalType": "address",
          "name": "",
          "type": "address"
        },
        {
          "internalType": "string",
          "name": "",
          "type": "string"
        }
      ],
      "name": "characterAccess",
      "outputs": [
        {
          "internalType": "bool",
          "name": "",
          "type": "bool"
        }
      ],
      "stateMutability": "view",
      "type": "function"
    },
    {
      "inputs": [],
      "name": "claimFaucet",
      "outputs": [],
      "stateMutability": "nonpayable",
      "type": "function"
    },
    {
      "inputs": [],
      "name": "decimals",
      "outputs": [
        {
          "internalType": "uint8",
          "name": "",
          "type": "uint8"
        }
      ],
      "stateMutability": "view",
      "type": "function"
    },
    {
      "inputs": [
        {
          "internalType": "address",
          "name": "user",
          "type": "address"
        }
      ],
      "name": "getMessageCount",
      "outputs": [
        {
          "internalType": "uint256",
          "name": "",
          "type": "uint256"
        }
      ],
      "stateMutability": "view",
      "type": "function"
    },
    {
      "inputs": [
        {
          "internalType": "address",
          "name": "user",
          "type": "address"
        }
      ],
      "name": "getMessagesRemaining",
      "outputs": [
        {
          "internalType": "uint256",
          "name": "",
          "type": "uint256"
        }
      ],
      "stateMutability": "view",
      "type": "function"
    },
    {
      "inputs": [
        {
          "internalType": "address",
          "name": "user",
          "type": "address"
        },
        {
          "internalType": "string",
          "name": "characterId",
          "type": "string"
        }
      ],
      "name": "hasCharacterAccess",
      "outputs": [
        {
          "internalType": "bool",
          "name": "",
          "type": "bool"
        }
      ],
      "stateMutability": "view",
      "type": "function"
    },
    {
      "inputs": [
        {
          "internalType": "address",
          "name": "user",
          "type": "address"
        }
      ],
      "name": "incrementMessageCount",
      "outputs": [],
      "stateMutability": "nonpayable",
      "type": "function"
    },
    {
      "inputs": [
        {
          "internalType": "address",
          "name": "",
          "type": "address"
        }
      ],
      "name": "lastResetTime",
      "outputs": [
        {
          "internalType": "uint256",
          "name": "",
          "type": "uint256"
        }
      ],
      "stateMutability": "view",
      "type": "function"
    },
    {
      "inputs": [
        {
          "internalType": "address",
          "name": "",
          "type": "address"
        }
      ],
      "name": "messageCount",
      "outputs": [
        {
          "internalType": "uint256",
          "name": "",
          "type": "uint256"
        }
      ],
      "stateMutability": "view",
      "type": "function"
    },
    {
      "inputs": [],
      "name": "name",
      "outputs": [
        {
          "internalType": "string",
          "name": "",
          "type": "string"
        }
      ],
      "stateMutability": "view",
      "type": "function"
    },
    {
      "inputs": [],
      "name": "owner",
      "outputs": [
        {
          "internalType": "address",
          "name": "",
          "type": "address"
        }
      ],
      "stateMutability": "view",
      "type": "function"
    },
    {
      "inputs": [
        {
          "internalType": "string",
          "name": "characterId",
          "type": "string"
        }
      ],
      "name": "payForCharacterAccess",
      "outputs": [],
      "stateMutability": "nonpayable",
      "type": "function"
    },
    {
      "inputs": [
        {
          "internalType": "address",
          "name": "user",
          "type": "address"
        }
      ],
      "name": "purchaseMessagePackage",
      "outputs": [],
      "stateMutability": "nonpayable",
      "type": "function"
    },
    {
      "inputs": [],
      "name": "renounceOwnership",
      "outputs": [],
      "stateMutability": "nonpayable",
      "type": "function"
    },
    {
      "inputs": [
        {
          "internalType": "address",
          "name": "user",
          "type": "address"
        },
        {
          "internalType": "string",
          "name": "characterId",
          "type": "string"
        }
      ],
      "name": "revokeCharacterAccess",
      "outputs": [],
      "stateMutability": "nonpayable",
      "type": "function"
    },
    {
      "inputs": [],
      "name": "symbol",
      "outputs": [
        {
          "internalType": "string",
          "name": "",
          "type": "string"
        }
      ],
      "stateMutability": "view",
      "type": "function"
    },
    {
      "inputs": [],
      "name": "totalSupply",
      "outputs": [
        {
          "internalType": "uint256",
          "name": "",
          "type": "uint256"
        }
      ],
      "stateMutability": "view",
      "type": "function"
    },
    {
      "inputs": [
        {
          "internalType": "address",
          "name": "to",
          "type": "address"
        },
        {
          "internalType": "uint256",
          "name": "value",
          "type": "uint256"
        }
      ],
      "name": "transfer",
      "outputs": [
        {
          "internalType": "bool",
          "name": "",
          "type": "bool"
        }
      ],
      "stateMutability": "nonpayable",
      "type": "function"
    },
    {
      "inputs": [
        {
          "internalType": "address",
          "name": "from",
          "type": "address"
        },
        {
          "internalType": "address",
          "name": "to",
          "type": "address"
        },
        {
          "internalType": "uint256",
          "name": "value",
          "type": "uint256"
        }
      ],
      "name": "transferFrom",
      "outputs": [
        {
          "internalType": "bool",
          "name": "",
          "type": "bool"
        }
      ],
      "stateMutability": "nonpayable",
      "type": "function"
    },
    {
      "inputs": [
        {
          "internalType": "address",
          "name": "newOwner",
          "type": "address"
        }
      ],
      "name": "transferOwnership",
      "outputs": [],
      "stateMutability": "nonpayable",
      "type": "function"
    }
  ],
  "bytecode": "0x60806040523480156200001157600080fd5b50336040518060400160405280601281526020017f4c696e676f6261626520546f6b656e20563200000000000000000000000000008152506040518060400160405280600681526020017f4c42414956320000000000000000000000000000000000000000000000000000815250816003908162000090919062000778565b508060049081620000a2919062000778565b505050600073ffffffffffffffffffffffffffffffffffffffff168173ffffffffffffffffffffffffffffffffffffffff16036200011a5760006040517f1e4fbdf7000000000000000000000000000000000000000000000000000000008152600401620001119190620008a4565b60405180910390fd5b6200012b816200017260201b60201c565b506200016c33620001416200023860201b60201c565b600a6200014f919062000a51565b633b9aca0062000160919062000aa2565b6200024160201b60201c565b62000b93565b6000600560009054906101000a900473ffffffffffffffffffffffffffffffffffffffff16905081600560006101000a81548173ffffffffffffffffffffffffffffffffffffffff021916908373ffffffffffffffffffffffffffffffffffffffff1602179055508173ffffffffffffffffffffffffffffffffffffffff168173ffffffffffffffffffffffffffffffffffffffff167f8be0079c531659141344cd1fd0a4f28419497f9722a3daafe3b4186f6b6457e060405160405180910390a35050565b60006012905090565b600073ffffffffffffffffffffffffffffffffffffffff168273ffffffffffffffffffffffffffffffffffffffff1603620002b65760006040517fec442f05000000000000000000000000000000000000000000000000000000008152600401620002ad9190620008a4565b60405180910390fd5b620002ca60008383620002ce60201b60201c565b5050565b600073ffffffffffffffffffffffffffffffffffffffff168373ffffffffffffffffffffffffffffffffffffffff16036200032457806002600082825462000317919062000aed565b92505081905550620003fa565b60008060008573ffffffffffffffffffffffffffffffffffffffff1673ffffffffffffffffffffffffffffffffffffffff16815260200190815260200160002054905081811015620003b3578381836040517fe450d38c000000000000000000000000000000000000000000000000000000008152600401620003aa9392919062000b39565b60405180910390fd5b8181036000808673ffffffffffffffffffffffffffffffffffffffff1673ffffffffffffffffffffffffffffffffffffffff16815260200190815260200160002081905550505b600073ffffffffffffffffffffffffffffffffffffffff168273ffffffffffffffffffffffffffffffffffffffff160362000445578060026000828254039250508190555062000492565b806000808473ffffffffffffffffffffffffffffffffffffffff1673ffffffffffffffffffffffffffffffffffffffff168152602001908152602001600020600082825401925050819055505b8173ffffffffffffffffffffffffffffffffffffffff168373ffffffffffffffffffffffffffffffffffffffff167fddf252ad1be2c89b69c2b068fc378daa952ba7f163c4a11628f55a4df523b3ef83604051620004f1919062000b76565b60405180910390a3505050565b600081519050919050565b7f4e487b7100000000000000000000000000000000000000000000000000000000600052604160045260246000fd5b7f4e487b7100000000000000000000000000000000000000000000000000000000600052602260045260246000fd5b600060028204905060018216806200058057607f821691505b60208210810362000596576200059562000538565b5b50919050565b60008190508160005260206000209050919050565b60006020601f8301049050919050565b600082821b905092915050565b600060088302620006007fffffffffffffffffffffffffffffffffffffffffffffffffffffffffffffffff82620005c1565b6200060c8683620005c1565b95508019841693508086168417925050509392505050565b6000819050919050565b6000819050919050565b600062000659620006536200064d8462000624565b6200062e565b62000624565b9050919050565b6000819050919050565b620006758362000638565b6200068d620006848262000660565b848454620005ce565b825550505050565b600090565b620006a462000695565b620006b18184846200066a565b505050565b5b81811015620006d957620006cd6000826200069a565b600181019050620006b7565b5050565b601f8211156200072857620006f2816200059c565b620006fd84620005b1565b810160208510156200070d578190505b620007256200071c85620005b1565b830182620006b6565b50505b505050565b600082821c905092915050565b60006200074d600019846008026200072d565b1980831691505092915050565b60006200076883836200073a565b9150826002028217905092915050565b6200078382620004fe565b67ffffffffffffffff8111156200079f576200079e62000509565b5b620007ab825462000567565b620007b8828285620006dd565b600060209050601f831160018114620007f05760008415620007db578287015190505b620007e785826200075a565b86555062000857565b601f19841662000800866200059c565b60005b828110156200082a5784890151825560018201915060208501945060208101905062000803565b868310156200084a578489015162000846601f8916826200073a565b8355505b6001600288020188555050505b505050505050565b600073ffffffffffffffffffffffffffffffffffffffff82169050919050565b60006200088c826200085f565b9050919050565b6200089e816200087f565b82525050565b6000602082019050620008bb600083018462000893565b92915050565b7f4e487b7100000000000000000000000000000000000000000000000000000000600052601160045260246000fd5b60008160011c9050919050565b6000808291508390505b60018511156200094f57808604811115620009275762000926620008c1565b5b6001851615620009375780820291505b80810290506200094785620008f0565b945062000907565b94509492505050565b6000826200096a576001905062000a3d565b816200097a576000905062000a3d565b81600181146200099357600281146200099e57620009d4565b600191505062000a3d565b60ff841115620009b357620009b2620008c1565b5b8360020a915084821115620009cd57620009cc620008c1565b5b5062000a3d565b5060208310610133831016604e8410600b841016171562000a0e5782820a90508381111562000a085762000a07620008c1565b5b62000a3d565b62000a1d8484846001620008fd565b9250905081840481111562000a375762000a36620008c1565b5b81810290505b9392505050565b600060ff82169050919050565b600062000a5e8262000624565b915062000a6b8362000a44565b925062000a9a7fffffffffffffffffffffffffffffffffffffffffffffffffffffffffffffffff848462000958565b905092915050565b600062000aaf8262000624565b915062000abc8362000624565b925082820262000acc8162000624565b9150828204841483151762000ae65762000ae5620008c1565b5b5092915050565b600062000afa8262000624565b915062000b078362000624565b925082820190508082111562000b225762000b21620008c1565b5b92915050565b62000b338162000624565b82525050565b600060608201905062000b50600083018662000893565b62000b5f602083018562000b28565b62000b6e604083018462000b28565b949350505050565b600060208201905062000b8d600083018462000b28565b92915050565b6122b88062000ba36000396000f3fe608060405234801561001057600080fd5b50600436106101a95760003560e01c806376697640116100f9578063c2652bb511610097578063d139979c11610071578063d139979c146104d4578063d7363ce7146104f0578063dd62ed3e14610520578063f2fde38b14610550576101a9565b8063c2652bb514610458578063c2fb79fa14610488578063cb443559146104a4576101a9565b80638da5cb5b116100d35780638da5cb5b146103d057806395d89b41146103ee578063a9059cbb1461040c578063c1630a441461043c576101a9565b806376697640146103645780637780f6c814610382578063801c406b146103b2576101a9565b80633866d9261161016657806350b335a41161014057806350b335a4146102f057806370a082311461030e578063715018a61461033e5780637547498014610348576101a9565b80633866d9261461029857806339d52418146102b65780634fe15335146102e6576101a9565b8063021a236d146101ae57806306fdde03146101de578063095ea7b3146101fc57806318160ddd1461022c57806323b872dd1461024a578063313ce5671461027a575b600080fd5b6101c860048036038101906101c3919061180e565b61056c565b6040516101d59190611854565b60405180910390f35b6101e66105c1565b6040516101f391906118ff565b60405180910390f35b6102166004803603810190610211919061194d565b610653565b60405161022391906119a8565b60405180910390f35b610234610676565b6040516102419190611854565b60405180910390f35b610264600480360381019061025f91906119c3565b610680565b60405161027191906119a8565b60405180910390f35b6102826106af565b60405161028f9190611a32565b60405180910390f35b6102a06106b8565b6040516102ad9190611854565b60405180910390f35b6102d060048036038101906102cb919061180e565b6106bd565b6040516102dd9190611854565b60405180910390f35b6102ee6106d5565b005b6102f8610700565b6040516103059190611854565b60405180910390f35b6103286004803603810190610323919061180e565b610705565b6040516103359190611854565b60405180910390f35b61034661074d565b005b610362600480360381019061035d919061180e565b610761565b005b61036c610880565b6040516103799190611854565b60405180910390f35b61039c6004803603810190610397919061180e565b610885565b6040516103a99190611854565b60405180910390f35b6103ba61089d565b6040516103c79190611854565b60405180910390f35b6103d86108a2565b6040516103e59190611a5c565b60405180910390f35b6103f66108cc565b60405161040391906118ff565b60405180910390f35b6104266004803603810190610421919061194d565b61095e565b60405161043391906119a8565b60405180910390f35b61045660048036038101906104519190611bac565b610981565b005b610472600480360381019061046d9190611bac565b610af2565b60405161047f91906119a8565b60405180910390f35b6104a2600480360381019061049d9190611c08565b610b65565b005b6104be60048036038101906104b99190611bac565b610ca4565b6040516104cb91906119a8565b60405180910390f35b6104ee60048036038101906104e9919061180e565b610ce9565b005b61050a6004803603810190610505919061180e565b610e56565b6040516105179190611854565b60405180910390f35b61053a60048036038101906105359190611c51565b610e9f565b6040516105479190611854565b60405180910390f35b61056a6004803603810190610565919061180e565b610f26565b005b6000600660008373ffffffffffffffffffffffffffffffffffffffff1673ffffffffffffffffffffffffffffffffffffffff1681526020019081526020016000205460326105ba9190611cc0565b9050919050565b6060600380546105d090611d23565b80601f01602080910402602001604051908101604052809291908181526020018280546105fc90611d23565b80156106495780601f1061061e57610100808354040283529160200191610649565b820191906000526020600020905b81548152906001019060200180831161062c57829003601f168201915b5050505050905090565b60008061065e610fac565b905061066b818585610fb4565b600191505092915050565b6000600254905090565b60008061068b610fac565b9050610698858285610fc6565b6106a385858561105b565b60019150509392505050565b60006012905090565b600181565b60066020528060005260406000206000915090505481565b6106fe336106e16106af565b600a6106ed9190611e87565b60646106f99190611ed2565b61114f565b565b603281565b60008060008373ffffffffffffffffffffffffffffffffffffffff1673ffffffffffffffffffffffffffffffffffffffff168152602001908152602001600020549050919050565b6107556111d1565b61075f6000611258565b565b6107696106af565b600a6107759190611e87565b60326107819190611ed2565b61078a82610705565b10156107cb576040517f08c379a00000000000000000000000000000000000000000000000000000000081526004016107c290611f60565b60405180910390fd5b6107f4816107d76106af565b600a6107e39190611e87565b60326107ef9190611ed2565b61131e565b6000600660008373ffffffffffffffffffffffffffffffffffffffff1673ffffffffffffffffffffffffffffffffffffffff1681526020019081526020016000208190555042600760008373ffffffffffffffffffffffffffffffffffffffff1673ffffffffffffffffffffffffffffffffffffffff1681526020019081526020016000208190555050565b606481565b60076020528060005260406000206000915090505481565b600a81565b6000600560009054906101000a900473ffffffffffffffffffffffffffffffffffffffff16905090565b6060600480546108db90611d23565b80601f016020809104026020016040519081016040528092919081815260200182805461090790611d23565b80156109545780601f1061092957610100808354040283529160200191610954565b820191906000526020600020905b81548152906001019060200180831161093757829003601f168201915b5050505050905090565b600080610969610fac565b905061097681858561105b565b600191505092915050565b8173ffffffffffffffffffffffffffffffffffffffff163373ffffffffffffffffffffffffffffffffffffffff1614806109ed57506109be6108a2565b73ffffffffffffffffffffffffffffffffffffffff163373ffffffffffffffffffffffffffffffffffffffff16145b610a2c576040517f08c379a0000000000000000000000000000000000000000000000000000000008152600401610a2390611ff2565b60405180910390fd5b6000600860008473ffffffffffffffffffffffffffffffffffffffff1673ffffffffffffffffffffffffffffffffffffffff16815260200190815260200160002082604051610a7b919061204e565b908152602001604051809103902060006101000a81548160ff0219169083151502179055508173ffffffffffffffffffffffffffffffffffffffff167f51cbcaaca6ae26944c6280c966a07b04ca5c6766d82ca497ded152579431468d82604051610ae691906118ff565b60405180910390a25050565b6000600860008473ffffffffffffffffffffffffffffffffffffffff1673ffffffffffffffffffffffffffffffffffffffff16815260200190815260200160002082604051610b41919061204e565b908152602001604051809103902060009054906101000a900460ff16905092915050565b6000610b6f6106af565b600a610b7b9190611e87565b600a610b879190611ed2565b905080610b9333610705565b1015610bd4576040517f08c379a0000000000000000000000000000000000000000000000000000000008152600401610bcb906120d7565b60405180910390fd5b610bde338261131e565b6001600860003373ffffffffffffffffffffffffffffffffffffffff1673ffffffffffffffffffffffffffffffffffffffff16815260200190815260200160002083604051610c2d919061204e565b908152602001604051809103902060006101000a81548160ff0219169083151502179055503373ffffffffffffffffffffffffffffffffffffffff167f8b8b3d5ecc640ba8e52acf947ed161335ebc0b707fe6f91cf9549ce14ff5416c83604051610c9891906118ff565b60405180910390a25050565b6008602052816000526040600020818051602081018201805184825260208301602085012081835280955050505050506000915091509054906101000a900460ff1681565b610cf16106af565b600a610cfd9190611e87565b6001610d099190611ed2565b610d1282610705565b1015610d53576040517f08c379a0000000000000000000000000000000000000000000000000000000008152600401610d4a90612143565b60405180910390fd5b6032600660008373ffffffffffffffffffffffffffffffffffffffff1673ffffffffffffffffffffffffffffffffffffffff1681526020019081526020016000205410610dd5576040517f08c379a0000000000000000000000000000000000000000000000000000000008152600401610dcc906121af565b60405180910390fd5b610dfe81610de16106af565b600a610ded9190611e87565b6001610df99190611ed2565b61131e565b600660008273ffffffffffffffffffffffffffffffffffffffff1673ffffffffffffffffffffffffffffffffffffffff1681526020019081526020016000206000815480929190610e4e906121cf565b919050555050565b6000600660008373ffffffffffffffffffffffffffffffffffffffff1673ffffffffffffffffffffffffffffffffffffffff168152602001908152602001600020549050919050565b6000600160008473ffffffffffffffffffffffffffffffffffffffff1673ffffffffffffffffffffffffffffffffffffffff16815260200190815260200160002060008373ffffffffffffffffffffffffffffffffffffffff1673ffffffffffffffffffffffffffffffffffffffff16815260200190815260200160002054905092915050565b610f2e6111d1565b600073ffffffffffffffffffffffffffffffffffffffff168173ffffffffffffffffffffffffffffffffffffffff1603610fa05760006040517f1e4fbdf7000000000000000000000000000000000000000000000000000000008152600401610f979190611a5c565b60405180910390fd5b610fa981611258565b50565b600033905090565b610fc183838360016113a0565b505050565b6000610fd28484610e9f565b90507fffffffffffffffffffffffffffffffffffffffffffffffffffffffffffffffff8110156110555781811015611045578281836040517ffb8f41b200000000000000000000000000000000000000000000000000000000815260040161103c93929190612217565b60405180910390fd5b611054848484840360006113a0565b5b50505050565b600073ffffffffffffffffffffffffffffffffffffffff168373ffffffffffffffffffffffffffffffffffffffff16036110cd5760006040517f96c6fd1e0000000000000000000000000000000000000000000000000000000081526004016110c49190611a5c565b60405180910390fd5b600073ffffffffffffffffffffffffffffffffffffffff168273ffffffffffffffffffffffffffffffffffffffff160361113f5760006040517fec442f050000000000000000000000000000000000000000000000000000000081526004016111369190611a5c565b60405180910390fd5b61114a838383611577565b505050565b600073ffffffffffffffffffffffffffffffffffffffff168273ffffffffffffffffffffffffffffffffffffffff16036111c15760006040517fec442f050000000000000000000000000000000000000000000000000000000081526004016111b89190611a5c565b60405180910390fd5b6111cd60008383611577565b5050565b6111d9610fac565b73ffffffffffffffffffffffffffffffffffffffff166111f76108a2565b73ffffffffffffffffffffffffffffffffffffffff16146112565761121a610fac565b6040517f118cdaa700000000000000000000000000000000000000000000000000000000815260040161124d9190611a5c565b60405180910390fd5b565b6000600560009054906101000a900473ffffffffffffffffffffffffffffffffffffffff16905081600560006101000a81548173ffffffffffffffffffffffffffffffffffffffff021916908373ffffffffffffffffffffffffffffffffffffffff1602179055508173ffffffffffffffffffffffffffffffffffffffff168173ffffffffffffffffffffffffffffffffffffffff167f8be0079c531659141344cd1fd0a4f28419497f9722a3daafe3b4186f6b6457e060405160405180910390a35050565b600073ffffffffffffffffffffffffffffffffffffffff168273ffffffffffffffffffffffffffffffffffffffff16036113905760006040517f96c6fd1e0000000000000000000000000000000000000000000000000000000081526004016113879190611a5c565b60405180910390fd5b61139c82600083611577565b5050565b600073ffffffffffffffffffffffffffffffffffffffff168473ffffffffffffffffffffffffffffffffffffffff16036114125760006040517fe602df050000000000000000000000000000000000000000000000000000000081526004016114099190611a5c565b60405180910390fd5b600073ffffffffffffffffffffffffffffffffffffffff168373ffffffffffffffffffffffffffffffffffffffff16036114845760006040517f94280d6200000000000000000000000000000000000000000000000000000000815260040161147b9190611a5c565b60405180910390fd5b81600160008673ffffffffffffffffffffffffffffffffffffffff1673ffffffffffffffffffffffffffffffffffffffff16815260200190815260200160002060008573ffffffffffffffffffffffffffffffffffffffff1673ffffffffffffffffffffffffffffffffffffffff168152602001908152602001600020819055508015611571578273ffffffffffffffffffffffffffffffffffffffff168473ffffffffffffffffffffffffffffffffffffffff167f8c5be1e5ebec7d5bd14f71427d1e84f3dd0314c0f7b2291e5b200ac8c7c3b925846040516115689190611854565b60405180910390a35b50505050565b600073ffffffffffffffffffffffffffffffffffffffff168373ffffffffffffffffffffffffffffffffffffffff16036115c95780600260008282546115bd919061224e565b9250508190555061169c565b60008060008573ffffffffffffffffffffffffffffffffffffffff1673ffffffffffffffffffffffffffffffffffffffff16815260200190815260200160002054905081811015611655578381836040517fe450d38c00000000000000000000000000000000000000000000000000000000815260040161164c93929190612217565b60405180910390fd5b8181036000808673ffffffffffffffffffffffffffffffffffffffff1673ffffffffffffffffffffffffffffffffffffffff16815260200190815260200160002081905550505b600073ffffffffffffffffffffffffffffffffffffffff168273ffffffffffffffffffffffffffffffffffffffff16036116e55780600260008282540392505081905550611732565b806000808473ffffffffffffffffffffffffffffffffffffffff1673ffffffffffffffffffffffffffffffffffffffff168152602001908152602001600020600082825401925050819055505b8173ffffffffffffffffffffffffffffffffffffffff168373ffffffffffffffffffffffffffffffffffffffff167fddf252ad1be2c89b69c2b068fc378daa952ba7f163c4a11628f55a4df523b3ef8360405161178f9190611854565b60405180910390a3505050565b6000604051905090565b600080fd5b600080fd5b600073ffffffffffffffffffffffffffffffffffffffff82169050919050565b60006117db826117b0565b9050919050565b6117eb816117d0565b81146117f657600080fd5b50565b600081359050611808816117e2565b92915050565b600060208284031215611824576118236117a6565b5b6000611832848285016117f9565b91505092915050565b6000819050919050565b61184e8161183b565b82525050565b60006020820190506118696000830184611845565b92915050565b600081519050919050565b600082825260208201905092915050565b60005b838110156118a957808201518184015260208101905061188e565b60008484015250505050565b6000601f19601f8301169050919050565b60006118d18261186f565b6118db818561187a565b93506118eb81856020860161188b565b6118f4816118b5565b840191505092915050565b6000602082019050818103600083015261191981846118c6565b905092915050565b61192a8161183b565b811461193557600080fd5b50565b60008135905061194781611921565b92915050565b60008060408385031215611964576119636117a6565b5b6000611972858286016117f9565b925050602061198385828601611938565b9150509250929050565b60008115159050919050565b6119a28161198d565b82525050565b60006020820190506119bd6000830184611999565b92915050565b6000806000606084860312156119dc576119db6117a6565b5b60006119ea868287016117f9565b93505060206119fb868287016117f9565b9250506040611a0c86828701611938565b9150509250925092565b600060ff82169050919050565b611a2c81611a16565b82525050565b6000602082019050611a476000830184611a23565b92915050565b611a56816117d0565b82525050565b6000602082019050611a716000830184611a4d565b92915050565b600080fd5b600080fd5b7f4e487b7100000000000000000000000000000000000000000000000000000000600052604160045260246000fd5b611ab9826118b5565b810181811067ffffffffffffffff82111715611ad857611ad7611a81565b5b80604052505050565b6000611aeb61179c565b9050611af78282611ab0565b919050565b600067ffffffffffffffff821115611b1757611b16611a81565b5b611b20826118b5565b9050602081019050919050565b82818337600083830152505050565b6000611b4f611b4a84611afc565b611ae1565b905082815260208101848484011115611b6b57611b6a611a7c565b5b611b76848285611b2d565b509392505050565b600082601f830112611b9357611b92611a77565b5b8135611ba3848260208601611b3c565b91505092915050565b60008060408385031215611bc357611bc26117a6565b5b6000611bd1858286016117f9565b925050602083013567ffffffffffffffff811115611bf257611bf16117ab565b5b611bfe85828601611b7e565b9150509250929050565b600060208284031215611c1e57611c1d6117a6565b5b600082013567ffffffffffffffff811115611c3c57611c3b6117ab565b5b611c4884828501611b7e565b91505092915050565b60008060408385031215611c6857611c676117a6565b5b6000611c76858286016117f9565b9250506020611c87858286016117f9565b9150509250929050565b7f4e487b7100000000000000000000000000000000000000000000000000000000600052601160045260246000fd5b6000611ccb8261183b565b9150611cd68361183b565b9250828203905081811115611cee57611ced611c91565b5b92915050565b7f4e487b7100000000000000000000000000000000000000000000000000000000600052602260045260246000fd5b60006002820490506001821680611d3b57607f821691505b602082108103611d4e57611d4d611cf4565b5b50919050565b60008160011c9050919050565b6000808291508390505b6001851115611dab57808604811115611d8757611d86611c91565b5b6001851615611d965780820291505b8081029050611da485611d54565b9450611d6b565b94509492505050565b600082611dc45760019050611e80565b81611dd25760009050611e80565b8160018114611de85760028114611df257611e21565b6001915050611e80565b60ff841115611e0457611e03611c91565b5b8360020a915084821115611e1b57611e1a611c91565b5b50611e80565b5060208310610133831016604e8410600b8410161715611e565782820a905083811115611e5157611e50611c91565b5b611e80565b611e638484846001611d61565b92509050818404811115611e7a57611e79611c91565b5b81810290505b9392505050565b6000611e928261183b565b9150611e9d83611a16565b9250611eca7fffffffffffffffffffffffffffffffffffffffffffffffffffffffffffffffff8484611db4565b905092915050565b6000611edd8261183b565b9150611ee88361183b565b9250828202611ef68161183b565b91508282048414831517611f0d57611f0c611c91565b5b5092915050565b7f496e73756666696369656e7420746f6b656e7320666f72207061636b61676500600082015250565b6000611f4a601f8361187a565b9150611f5582611f14565b602082019050919050565b60006020820190508181036000830152611f7981611f3d565b9050919050565b7f4f6e6c792075736572206f722061646d696e2063616e207265766f6b6520616360008201527f6365737300000000000000000000000000000000000000000000000000000000602082015250565b6000611fdc60248361187a565b9150611fe782611f80565b604082019050919050565b6000602082019050818103600083015261200b81611fcf565b9050919050565b600081905092915050565b60006120288261186f565b6120328185612012565b935061204281856020860161188b565b80840191505092915050565b600061205a828461201d565b915081905092915050565b7f496e73756666696369656e742062616c616e636520666f72206368617261637460008201527f6572206163636573730000000000000000000000000000000000000000000000602082015250565b60006120c160298361187a565b91506120cc82612065565b604082019050919050565b600060208201905081810360008301526120f0816120b4565b9050919050565b7f496e73756666696369656e7420746f6b656e7300000000000000000000000000600082015250565b600061212d60138361187a565b9150612138826120f7565b602082019050919050565b6000602082019050818103600083015261215c81612120565b9050919050565b7f4d657373616765206c696d697420726561636865640000000000000000000000600082015250565b600061219960158361187a565b91506121a482612163565b602082019050919050565b600060208201905081810360008301526121c88161218c565b9050919050565b60006121da8261183b565b91507fffffffffffffffffffffffffffffffffffffffffffffffffffffffffffffffff820361220c5761220b611c91565b5b600182019050919050565b600060608201905061222c6000830186611a4d565b6122396020830185611845565b6122466040830184611845565b949350505050565b60006122598261183b565b91506122648361183b565b925082820190508082111561227c5761227b611c91565b5b9291505056fea2646970667358221220aa3b7ccc9c9c7e072c31d834b0808c5e32a18211e8541c325caef23a1ef36da964736f6c63430008140033",
  "linkReferences": {},
  "deployedLinkReferences": {}
}